:020000040800F2
:10000000300C002039020008396F00085D5D0008DF
:10001000096F000879240008E5800008000000004E
:10002000000000000000000000000000C177000890
:1000300049290008000000005B6F0008997800085B
:10004000530200085302000853020008530200083C
:10005000530200085302000853020008530200082C
:10006000530200085302000853020008530200081C
:10007000530200085302000853020008530200080C
:1000800053020008530200085302000853020008FC
:1000900053020008530200085302000853020008EC
:1000A00053020008530200085302000853020008DC
:1000B00053020008530200085302000853020008CC
:1000C00053020008530200085302000853020008BC
:1000D00053020008530200085302000853020008AC
:1000E0004B2900085302000853020008530200087D
:1000F000530200085302000853020008530200088C
:10010000530200085302000853020008530200087B
:1001100053020008097F00081979000853020008FB
:10012000530200085302000853020008530200085B
:1001300000F002F800F070F80AA090E8000C824489
:100140008344AAF10107DA4501D100F065F8AFF266
:10015000090EBAE80F0013F0010F18BFFB1A43F0A5
:1001600001031847C0CC0000E0CC00000A444FF067
:10017000000C10F8013B13F0070408BF10F8014B06
:100180001D1108BF10F8015B641E05D010F8016B4B
:10019000641E01F8016BF9D113F0080F1EBF10F8AF
:1001A000014BAD1C0C1B09D16D1E58BF01F801CBD2
:1001B000FAD505E014F8016B01F8016B6D1EF9D555
:1001C0009142D6D37047000000230024002500266A
:1001D000103A28BF78C1FBD8520728BF30C148BFAA
:1001E0000B60704766290BF0ED85642900F0B28042
:1001F000002070471FB500F0FFFD04000020002123
:100200000AF0A2FC401C6060002000210AF086FC7D
:10021000E0601FBD10B510BD00F01EFF1146FFF7D6
:10022000E9FF09F02DFD01F0C1F903B4FFF7F2FF7A
:1002300003BC08F0E5F8000009488047094800477A
:10024000FEE7FEE7FEE7FEE7FEE7FEE7FEE7FEE786
:10025000FEE7FEE704480549054A064B70470000E3
:10026000177900083101000830060020300C00200A
:100270003008002030080020704710B54C1084EA88
:10028000530404D54042C1F1000138BF491E1B424E
:1002900004D55242C3F1000338BF5B1E00F01EFAC2
:1002A00014F0804F04D04042C1F1000138BF491E14
:1002B00014F0004F04D05242C3F1000338BF5B1E5C
:1002C00010BD00000FB4044910B503AA029800F055
:1002D0000DFD10BC5DF814FB980000200FB41CB598
:1002E000074B06AA7B4469460090059800F0E5FCA0
:1002F0000020694600F0F4FC1CBC5DF814FB000013
:10030000F909000070B5044685690068C10601D589
:10031000302600E02026C00707D070BDD4E90121B7
:1003200030469047206A401C20626D1EF6D570BD95
:1003300070B5044685690078C00707D170BDD4E95F
:10034000012120209047206A401C20626D1EF6D5B6
:1003500070BD00002DE9F0410646002410687529A3
:10036000314616A510D0AFF30080002802DA4042D3
:1003700013A507E031688A0701D512A502E04907F5
:1003800004D511A5012401E0AFF3008000210A2269
:1003900006F1240709E0B0FBF2FCB0FBF2F302FB2C
:1003A0001C00303078541846491C0028F3D12346ED
:1003B0002A463046BDE8F04100F012BA00000000C5
:1003C0002D0000002B000000200000002DE9F04768
:1003D0004FF0000A89460446C0F820A02046E16894
:1003E0008847002876D0252806D0D4E901219047F7
:1003F000206A401C2062F1E7E1682046002588471A
:10040000C4F81CA006460027C4F818A02A2E09D05C
:10041000304607F0EEFF38B304EB8708303EC8F8EB
:10042000186019E059F8041B204604EB870291611B
:10043000E1688847012F064618D1E069002820DAD4
:1004400025F020051DE0D8F8180000EB800006EB31
:1004500040003038C8F818002046E1688847064652
:1004600007F0C7FF0028EED1012F0AD02E2E08D1A9
:100470002046E16888477F1C0646022F45F020058C
:10048000C4DBA069002803DA404245F00105A06101
:10049000E80701D025F01005B6B1A6F141001928F2
:1004A00002D8203645F400654A463146204625608C
:1004B0004D46FFF797FE58B1012806D0ED1D25F0F7
:1004C000070000F1080989E704E005F1040985E760
:1004D00030468AE7206ABDE8F08740EA010310B59C
:1004E0009B070FD1042A0DD310C808C9121F9C42C4
:1004F000F8D020BA19BA884201D9012010BD4FF0B6
:10050000FF3010BD1AB1D30703D0521C07E0002002
:1005100010BD10F8013B11F8014B1B1B07D110F85F
:10052000013B11F8014B1B1B01D1921EF1D1184662
:1005300010BD10B5431C02E010F8011B71B181071A
:10054000FAD14FF0013202C88C1A8C4314EAC2115E
:10055000F9D0C01A0A0603D0C01E10BDC01A10BDC3
:100560000A0401D0801E10BD0902FCD0401E10BD3F
:10057000421E12F8013F002BFBD111F8013B002B6A
:1005800002F8013BF9D17047032A40F2308010F0A5
:10059000030C00F0158011F8013BBCF1020F62441E
:1005A00098BF11F801CB00F8013B38BF11F8013BAF
:1005B000A2F1040298BF00F801CB38BF00F8013B5C
:1005C00011F0030300F02580083AC0F0088051F8CC
:1005D000043B083A51F804CBA0E80810F5E7121DD7
:1005E0005CBF51F8043B40F8043BAFF30080D207F6
:1005F00024BF11F8013B11F801CB48BF11F8012BC2
:1006000024BF00F8013B00F801CB48BF00F8012BE4
:10061000704710B5203AC0F00B80B1E81850203A6E
:10062000A0E81850B1E81850A0E81850BFF4F5AF92
:100630005FEA027C24BFB1E81850A0E8185044BF1C
:1006400018C918C0BDE810405FEA827C24BF51F889
:10065000043B40F8043B08BF7047D20728BF31F87D
:10066000023B48BF11F8012B28BF20F8023B48BFCE
:1006700000F8012B704702F0FF0343EA032242EA2D
:10068000024200F099BB4FF0000200B513469446B9
:100690009646203922BFA0E80C50A0E80C50B1F1DA
:1006A0002001BFF4F7AF090728BFA0E80C5048BFEE
:1006B0000CC05DF804EB890028BF40F8042B08BF8C
:1006C000704748BF20F8022B11F0804F18BF00F888
:1006D000012B7047704770477047704753EA020C10
:1006E00000F069802DE9F04B4FF00006002B1FBF92
:1006F000B3FA83F503FA05F424FA05F65E4012BF57
:100700001643B2FA82F502FA05F4C5F120051EBFC0
:1007100022FA05FC44EA0C04203556EA044C4FEA60
:10072000144418BF641C4FF000084FF000099042B9
:1007300071EB030C39D3002919BFB1FA81F701FA23
:1007400007F6B0FA80F700FA07F6C7F120071EBFD8
:1007500020FA07FC46EA0C062037B6FBF4FCA7EBB0
:100760000507103F07F01F0BCBF120060CFA0BFB1F
:100770002CFA06F644BFB3460026202FA4BF5E46DF
:100780004FF0000B5BEA060C08BF4FF0010B19EBB2
:100790000B09ABFB027C48EB0608C01B06FB02CC36
:1007A0000BFB03CC71EB0C01C1E70B460246414643
:1007B0004846BDE8F08B13B54FF000004FF0000144
:1007C000AFF30080BDE81C40704710B500F018FB87
:1007D000006810BD10B5044600F012FB046010BDA7
:1007E0002DE9F0470D4699469246044600F124084B
:1007F0000168880604D5E06921F01001216000E05D
:100800000120A84201DD471B00E00027A1697A19F9
:1008100002EB0900081AA0612078C00602D4204625
:10082000FFF770FD002608E0D4E901211AF8060060
:100830009047206A401C761C20624E45F4DB2078ED
:10084000C0060AD52046FFF75DFD06E0D4E9012188
:1008500030209047206A401C2062381EA7F1010713
:10086000F4DC07E0D4E9012118F805009047206A7C
:10087000401C2062281EA5F10105F3DC2046FFF78D
:1008800057FD2078000602D50220BDE8F087012040
:10089000FBE770472DE9FF4F0C461E464FF0FF3730
:1008A0008BB0D2E90001DDF860800A908A46C1F37E
:1008B0000A5505B93D46002108464FF00000BAF13F
:1008C000000F00F4400005DA00EB80004FF4400117
:1008D00001EA50004FEA9059B9F1010F00DDB94625
:1008E0000A9850EA4A000ED044F61050A5F2FF359F
:1008F00045432F14B8F1000F1ED07542291E1EDD8E
:10090000C9F100021CE0B8F1010F4FF0000001D066
:10091000302103E0F24305E02154401CB042FBDBF0
:1009200030460022002121540B99C1F80880C1E90A
:1009300000200FB0BDE8F08FBD1B6D1CDEE74A46FE
:1009400000DA694206A800F00DFB06AB93E8070049
:1009500003AB83E8070050460A9901F0BCF88DE824
:100960000700A0F500501F3800900398002D0ADD05
:1009700042F21F014A460844002303A90390684637
:1009800001F068FB09E0A0F500504A461F3800233B
:1009900003A90390684601F087FB8DE80700000477
:1009A000000C03D04FF0FF30410800E01046B8F1D2
:1009B000000F03D00022009215461EE0751E05D4DC
:1009C00000F022FA303262556D1EF9D5B34601228D
:1009D000084302D000227F1C04E02078302801D197
:1009E00000227F1E002A099784D01DE0112D07DA0E
:1009F00000F00AFA303262556D1C50EA0102F5D15E
:100A0000084302D00098C8B10EE00021681E05E03E
:100A1000235C625C63542254401E491C8142F7DB14
:100A2000AB46A81B401E0990002004F80B000B9851
:100A3000099AC0F80880C0E9002B7AE711264FF028
:100A4000000857E72DE9F04F88460446D21D22F0F2
:100A5000070191B0D1E90001CDE90A0107F0C4FB1B
:100A600002460B98C00F01D02D2007E020688107B7
:100A700001D52B2002E0202101EAC000032A0990C1
:100A800001D0072A05DB03464146204600F00AFA5A
:100A90000BE12078800601D5E06900E00620B8F17E
:100AA000650F814606D0B8F1660F18D0B8F1670F10
:100AB00070D131E00020B9F1110F009001DB11235A
:100AC00001E009F101030AAA01A90CA8FFF7E2FE5F
:100AD000DDE90C70002609F10105834647E001209D
:100AE0004B4600904FF000470AAA01A90CA8FFF757
:100AF000D1FEDDE90DB00C995D46002610B909F173
:100B000001000D18B9EB050003D4C0F1FF3609F15F
:100B10000105A5EB09002BE0B9F1010F01DA4FF057
:100B200001090020B9F1110F0090484601DD1123A1
:100B300000E003460AAA01A90CA8FFF7ABFEDDE915
:100B40000C704D4600268346207800070AD4AB453A
:100B500000DA5D4601A8012D04DD411911F8011CE0
:100B6000302907D04F4502DA17F1040F04DA0120CB
:100B700082460FE06D1EEEE7002F02DCED1B3E44C7
:100B800003E0781CA84200DD7D1CB81B00F1010ABF
:100B90004FF000472078000703D4AA4501DB4FF04F
:100BA000FF3A0021B7F1004F0DF143088DF84310D3
:100BB00024D002202B23002F01DA7F422D230A218B
:100BC000021EA0F1010000DC5FB197FBF1FC97FB76
:100BD000F1F201FB1C7C17460CF1300C08F801CD3A
:100BE000EEE7A8F1010003702188090501D5452130
:100BF00000E06521A0F1010800F8011C09980FA987
:100C0000A1EB0807FF1D00B10120411901EBEA70BB
:100C1000A1693844081A401EA0612078C00602D499
:100C20002046FFF76FFB099828B1D4E901219047CE
:100C3000206A401C20622078C00622D52046FFF79B
:100C400061FB1EE0002E04DBB34502DD01A8805DE0
:100C500000E03020D4E901219047206A401C206246
:100C6000761CAAF101005FEA000A0AD100F0C4F87C
:100C7000C0680168405CD4E901219047206A401CAB
:100C80002062281EA5F10105DCDC07E0D4E9012182
:100C900018F8010B9047206A401C2062381EA7F10B
:100CA0000107F3DC2046FFF743FB032011B041E6C8
:100CB00001694A1C02610878704700B58FB0CDE920
:100CC00001310021059105497944CDE90310114610
:100CD0006846FFF77BFB0FB000BD0000E5FFFFFF9C
:100CE0000A6802F8010B0A6070470000074B70B5F4
:100CF0000D467B44FFF7E1FF0446284600F0A4F9C7
:100D000010B14FF0FF3070BD204670BDE788000085
:100D10000FB4002300B589B00CA900910B99CB60EA
:100D2000214B7B440693214B7B44079304236FF0B4
:100D30000042CDE901321E4A7A446B4608920246CF
:100D400000200BF0C7F809B05DF814FB70B506463B
:100D50004FF0FF3015460C46324686B00091CDE983
:100D6000010169460020049004A8FFF7D1FF024664
:100D70000498211825B108B1084600E020462860F3
:100D8000049800280DD0002A02DD0098884208D07F
:100D90003246081B69460094CDE9010404A8FFF718
:100DA000B7FF06B070BD0000FF0100001702000091
:100DB000570100004FF000020429C0F0128010F02B
:100DC000030C3FF462ACCCF1040CBCF1020F18BF71
:100DD00000F8012BA8BF20F8022BA1EB0C01FFF7B4
:100DE00054BC5FEAC17C24BF00F8012B00F8012B42
:100DF00048BF00F8012B704700487047F0050020FD
:100E000000487047D005002030B5B0F10A024FEA23
:100E1000900E71F100034EEA817EB0EB0E0061EBA3
:100E200091014FEA101E4EEA017E10EB0E0041EBDD
:100E300011114FEA102E4EEA016E10EB0E0041EB3D
:100E400011214FEA104E4EEA014E10EB0E0041EB1D
:100E50001141401841F100014FEAD00040EA4170D1
:100E60004FEAD10110EB80054FEA810444EA907407
:100E700044EB01046D1944EB0404521BA3414FF0F1
:100E8000000348BF0A3200D530BD401C41F10001CB
:100E900030BD10B5044600F005F90068005D00F0B3
:100EA000010010BD2DE9F0411F46044603260168EC
:100EB000072A01F4006004DB08B116A505E016A5B9
:100EC00003E008B115A500E015A521F01000206091
:100ED000A069C01EA0610FB1401EA0612046FFF7AF
:100EE00011FA4FB1D4E9012138469047206A401CDD
:100EF0002062C01C206206E0206AFAE7D4E90121E2
:100F000015F8010B9047761EF8D22046FFF710FA2D
:100F1000BDE8F0814E414E006E616E00494E4600C4
:100F2000696E6600426842B1016811F8013B23B165
:100F3000521EC0E90012184670470121C160881E88
:100F4000704742685AB1C368016843B983688B42ED
:100F500005D0491E521CC0E90012002070474FF016
:100F6000FF3070472DE9F047814616468AB0354874
:100F700078440DC88DE80D0032487844801C03ACDD
:100F80000DC884E80D0041F69B300844372190FBE2
:100F9000F1F290FBF1F5A5F1800501FB12041B3C79
:100FA00002D56442012000E00020DFF898A08046CE
:100FB0000027FA44AAF1BE0A0EE0E0070AD0324642
:100FC000684607EB470101230AEB810101F06CF849
:100FD0008DE8070064107F1C002CEED1194F7F4470
:100FE000AE3F19E0E80715D007EB04100DF1180A21
:100FF00090E80E008AE80E00C068F04201D198190E
:1010000008903246012306A903A801F04DF803AB6E
:1010100083E807006D10641C002DE3D14FF001033D
:1010200032466946B8F1000F03A802D001F012F869
:1010300001E001F039F8C9E90001C9F808200AB057
:10104000BDE8F08748BE0000007B00F080007047DC
:1010500000487047D00500207546FFF7F9FFAE46FF
:1010600005006946534620F00700854618B020B5B4
:10107000FFF7F0F8BDE820404FF000064FF0000702
:101080004FF000084FF0000B21F00701AC46ACE830
:10109000C009ACE8C009ACE8C009ACE8C0098D469D
:1010A0007047000010B5FFF7A7FE001D10BD00BF80
:1010B000999A00002DE9FF4F06468BB00878FF286B
:1010C00006D0491C2D2805D000244FF0000908E067
:1010D00000200CE00124F8E709EB8903491C00EB30
:1010E00043090878FF28F7D114B1C9F100008146FF
:1010F000107800252C46AA4629462D2801D02B28F9
:1011000004D1521C2D2813D0002082468B46107823
:10111000FF280FD04FF0000C0A21521CA5FB0178CC
:1011200004FB018105FB0C11C5194BEB0104EEE733
:101130000120EAE7002108464FF00000BAF1000F55
:1011400002D000EB80004008C0F38157012F01DD81
:101150004FF0FF370E9955EA040009EB01080BD058
:101160004FF0020918F5FA7F16DA4FEACA70002F1D
:10117000706008DD012007E04FEACA70C6E900B0E0
:101180000FB0BDE8F08F00203060FFF739FEC0F8E7
:1011900000901821084616E0B8F5FA7F18DD002FF8
:1011A00002DAF748784401E0F6487844D0E90010C4
:1011B000C6E9001040EACA707060FFF721FEC0F86F
:1011C0000090142108460FB0BDE8F04F0AF0F7BDBB
:1011D000002108464FF00000B8F10001099002DA42
:1011E000C7F1000200E03A4601DAC8F1000106A8A2
:1011F000FFF7B8FE06AB93E8070003AB83E80700F0
:1012000044F23E005BEA04010090584604D144F2E7
:101210001E012C465D460091210C0904014306D1B4
:101220000099240444EA15442D041039009104F077
:101230007F41014306D10099240244EA15642D023E
:101240000839009104F07041014306D1009924014E
:1012500044EA15742D01091F009104F04041014337
:1012600006D10099A40044EA9574AD00891E00914E
:1012700004F00041084304D100986D196441401EF8
:1012800000904FF001033A466846B8F1000FCDE9EF
:10129000014503A902DD00F01CFF01E000F0EFFEB4
:1012A000BAF1000F04460D4601D084F0004400213D
:1012B00008464FF00000099940F2FF77484010F0CF
:1012C0000C0F07D124F00040284303D0C4F30A5088
:1012D000B84212D1FFF794FDC0F80090C4F30A5051
:1012E000B8420AD1A8487844D0E90010C6E90010F5
:1012F00004F000410843706042E7C6E900543FE74C
:101300002DE9FF4F1F464FF0000A4FF0FF384546CA
:1013100091B0D7E90146CDF83CA0FFF76DFDC0685C
:101320000168405C1090B96912986D1C8847396A51
:10133000814688470028F6D1B9F1FF3F0AD0002E38
:1013400024F4D06411DDB9F12B0F08D0B9F12D0FC1
:101350000BD102E0404615B013E744F48064B9694C
:1013600012986D1C8847761E8146600504A901D538
:101370002D2000E02B20002E01F1010B0DF1300893
:101380008DF810003FDDB9F1690F08D0B9F1490FB0
:1013900005D0B9F16E0F02D0B9F14E0F1CD13B460A
:1013A00001A8009580E85002DDE912126FF00200FA
:1013B0000AF094FDC11CCED10EE0B96912986D1CE3
:1013C000884781461398761E44F4007405600F9890
:1013D000401C002E0F9016DDB9F1300FEDD0B9F1A1
:1013E000780F02D0B9F1580F0DD10F9801280AD10A
:1013F0003B46CDE90054DDE91212001F02960AF0C7
:101400006BFDC11CA7D1109989453ED144F08004E1
:1014100006E01399681CAAF1010A44F400740860FC
:10142000B9696D1C1298761E884730288146F0D025
:101430002BE01099894505D1200603D4761E44F08F
:10144000800418E0484606F0D4FF08B3761E0DF17C
:1014500023018B4544F4007408D2A9F130000BF845
:10146000010B200607D5AAF1010003E0200602D4F3
:101470000AF101008246A00502D51399681C086094
:10148000B96912986D1C88478146002ED1DC53E063
:10149000002E51DDB9F1650F02D0B9F1450F4BD1E6
:1014A000A00549D5B9696D1C1298761E24F44074C4
:1014B0008847002E81460CDD2B2804D0B9F12D0F72
:1014C00007D144F48074B96912986D1C8847761E60
:1014D0008146E00501D52D2100E02B2108F8011BF4
:1014E000CDF8008021E0761E0DF13901884544F4E5
:1014F00000740CD2A9F1300010F0FF0088F8000051
:1015000002D10099884509D908F1010806E0E005F3
:1015100001D51E4801E042F20F708246B969129867
:101520006D1C8847814613980560002E04DD4846EF
:1015300006F05FFF0028D6D1F96912988847FF208E
:1015400053468BF8000088F8000000200A900B90AA
:1015500004AA0CA90AA8FFF7ADFDA00502D46FF0FC
:101560000100F8E614F0240F12D0E0071CD138680F
:10157000DDE90A12031D3B600068C0E9001213E0B8
:10158000A4BC000096BC00005ABB0000F1D8FFFFCD
:101590000AA9684606F0BCFEE00705D13868009A43
:1015A000011D3960006802602846D4E610B5044683
:1015B000AFF300802046BDE81040FEF736BE0000C5
:1015C0004FF0013C50F8042B51F8043B9A4221D1D2
:1015D000A2EB0C03934313EACC1317D150F8042B5E
:1015E00051F8043B9A4215D1A2EB0C03934313EA42
:1015F000CC130BD150F8042B51F8043B9A4209D17B
:10160000A2EB0C03934313EACC13DBD04FF00000A2
:10161000704700BFD01A01BAB1FA81F101F0180188
:1016200022FA01F0CB40C1F12001DBB2C0B2C01AF6
:101630002CFA01F3D11A914311EAC311E6D1704794
:101640002DE9FF4F1F464FF03C0987B04FF0004295
:10165000DDE9141001F10108DDF858A002EA40505C
:101660000390002005908346054604460490B9691E
:10167000461E08988847AAF1010A0290BAF1000FA5
:101680003BDD02982E2815D0102100F016FA002814
:101690002EDB4FF0010B0599014317D0B9F1000F74
:1016A0000BDB4A46C11700F0F5F905430C43A9F1DD
:1016B000040905E0012004900BE008B145F00105A4
:1016C00001200590049820B9361D02E0049800B16D
:1016D000361FB969089808F101088847BBF1000F67
:1016E000AAF1010A0290C9D00999C1F80080C5E7A2
:1016F0000298702808D0502806D0F96908988847C1
:10170000BBF1000F14D04FE0002002900120BBF18C
:10171000000F049009D0B969089808F101088847BA
:10172000AAF10109B9F1000F07DCF96908988847A7
:101730006FF001000BB0BDE8F08F2B2804D02D28EE
:101740000CD14FF0FF300490B969089808F10108F6
:101750008847A9F10109B9F1000FE6DD411CE4D089
:101760000A2100F0AAF90028DFDB029908F101083C
:1017700001EB810100EB41000290B96908988847AC
:101780000A2100F09AF9099AA9F10109B9F1000FAB
:10179000C2F8008001DD0028E7DAF9690898884777
:1017A0000499029800FB016655EA040004D004F095
:1017B0004041090002D006E0039898E0A40044EA02
:1017C0009574AD00B61E04F00041080002D16D19F9
:1017D0006441761E159810F0240F03D04FF00B09CA
:1017E0005C4803E04FF028096FF07D0082465645C3
:1017F00007DAAAEB06018944B9F1410F01DD4FF088
:10180000410901200021A9F1010200F043F902463B
:1018100028400B462140084301D0012100E000216F
:10182000501E029143F1FF3128402140084301D06E
:10183000012000E000200299834651EA0B014FD0BD
:10184000002108464FF00000039900F4400039B130
:1018500000EB80004FF4400100EBD07001EA600023
:101860008015012802DD4FF0FF3000E013D0401C4E
:1018700036D0029860B3BBF1000F0CD14A4601206C
:10188000002100F007F928402140084301D0012041
:1018900000E00020E0B101204A46002100F0FAF803
:1018A000034640190A4661412D1A8C4111D3B9F102
:1018B000400F09DD159810F0240F02D0AAF134066C
:1018C00003E0AAF1170600E0761C00254FF0004463
:1018D00006E05B1E42F1FF3220EA030521EA020422
:1018E000CAF10100B04206DA1B490398084301908F
:1018F000002000900EE0039AC4F3D321E80A0A43C3
:10190000164940EA44500A433146CDE90002684690
:1019100006F064FD159810F0240F0BD01598C00741
:1019200015D13868DDE90012031D3B600068C0E98D
:1019300000120CE002A8694606F0EAFC1598C00700
:1019400005D13868029A011D39600068026040467E
:10195000F0E6000002FCFFFF0000F07F0000F03F17
:101960002DE9FF4F92461D4685B04FF00041DDE95D
:10197000124BDDE914727F1E01EA4B50414940F0E1
:10198000FF4940EA0108002122F020004928049183
:1019900002D04E2828D04CE03BA0012607C88DE895
:1019A0000700A9690698641C88477F1E014606D473
:1019B0001DF8060018B121F0200181420BD0E96921
:1019C00006988847032E34D0082E32D06FF00100DD
:1019D00009B0BDE8F08F761C032E01D0082EE0D1AF
:1019E000601CCAF80000DCE7A9690698641C8847F7
:1019F0007F1E2AD420F02000412826D1A96906980C
:101A0000641C88477F1E20D420F020004E281CD163
:101A1000A9690698641C88477F1E48F4002849F489
:101A20008009CAF8004001D4282806D0E969069840
:101A300088475FEACB7012D022E0A9690698641C3F
:101A400088477F1E01D4002803DAE9690698884791
:101A5000BCE72928F1D1641CCAF80040E9E71BF073
:101A6000240F07D028680499031D2B600068C0E983
:101A7000001805E02868021D2A600068C0F8009080
:101A80002046A5E70000F07F494E46494E4954598B
:101A900000000000B2F120030AD5C2F1200301FAD0
:101AA00002F120FA03F300FA02F041EA0301704761
:101AB00000FA03F14FF0000070473A2800D23038A6
:101AC00020F02002412A01D3A2F13700884201D33D
:101AD0004FF0FF3070475FEA400C08BF91F0000FF5
:101AE0004FEA8C234FEAC12243EA51514FEA1C507E
:101AF00018BF00F5F0404FEA300018BF41F0004138
:101B00005FEA6C5C00F02980BCF1FF3F08BF40F049
:101B100080407047130C06BF12044FF0100C4FF0BA
:101B2000000C130E04BF12020CF1080C130F04BFBB
:101B300012010CF1040C930F04BF92000CF1020C83
:101B4000D30F04BF52000CF1010C11464FF00002FC
:101B5000A0F11F00A0EB0C00704711F0004F08BF70
:101B6000704731F000413FF4D5AF0B0C06BF0904BC
:101B70004FF0100C4FF0000C0B0E04BF09020CF1DB
:101B8000080C0B0F04BF09010CF1040C8B0F04BFF0
:101B900089000CF1020CCB0F04BF49000CF1010CC1
:101BA000CCF12003A0EB0C0022FA03F302FA0CF2B2
:101BB00041EA030100F10100704720F07F4C80EA08
:101BC000030023F07F47ACEB070303F57C5300F0E1
:101BD000004003F1FF032DE980494FEA154B09B49A
:101BE0004FEA144325EA0B4E24EA03480FF2042679
:101BF00006EB132749083E785FEA320203FB0667CB
:101C0000C7F5000707FB06F64FEA54374FEAD646FA
:101C100006F1020607FB066CCCF1005C4FEA1C479C
:101C20002CEA074C07FB06F40CFB06F504EB154603
:101C30004FEA961634BF00204FF000404FEAD137EC
:101C400006FB07FC4FEA1C4C0CFB0BF7D21B03FBFB
:101C50000CF761EB07010CFB0EF7B0EB074072EBE2
:101C600017420CFB08F734BFA2EB0742B2EB074266
:101C700061EB17414FEA0C444FEA910706FB07FC62
:101C80004FEA1C4C0CFB0BF7B0EBC74072EB573222
:101C900003FB0CF734BFA2EBC742B2EBC74261EBC8
:101CA00057310CFB0EF7B0EBC70072EB57720CFB11
:101CB00008F734BFA2EBC702B2EBC70261EB577162
:101CC000039F4FEA816141EA921104EBCC044FEA91
:101CD000D1374FEA826206FB07FC42EA90124FEAD4
:101CE00080604FEA1C4C0CFB0BF7D21B03FB0CF77C
:101CF00061EB07010CFB0EF7B0EB074072EB1742EC
:101D00000CFB08F734BFA2EB0742B2EB074261EBD2
:101D100017414FEA8C554FEA910704EB9C2406FBD0
:101D200007FC4FEA1C4C0CFB0BF7B0EBC74072EB07
:101D3000573203FB0CF734BFA2EBC742B2EBC742EA
:101D400061EB57310CFB0EF7B0EBC70072EB57722B
:101D50000CFB08F734BFA2EBC702B2EBC70261EB82
:101D6000577115EB4C254FEA816141EA92114FEA18
:101D700082624FEAD13742EA901206FB07FC44F137
:101D800000044FEA80604FEA1C4C0CFB0BF7D21B9F
:101D900003FB0CF761EB07010CFB0EF7B0EB074000
:101DA00072EB17420CFB08F734BFA2EB0742B2EB11
:101DB000074261EB174115EB1C154FEA813141EAEF
:101DC00092414FEA823242EA90424FEA80304FEA33
:101DD0000C7644F1000448EA03434EEA0B484FF006
:101DE000000EB2EB080C71EB030724BF62463946C4
:101DF0004EEB0E0E4FF0000B0018524149414BEBD9
:101E00000B0BB2EB080C71EB03077BF1000B24BF4B
:101E1000624639464EEB0E0E4FF0000B0018524151
:101E200049414BEB0B0BB2EB080C71EB03077BF159
:101E3000000B24BF624639464EEB0E0E51EA0207F4
:101E400018BF46F0010616EB0E7655F1000254F16C
:101E5000000103D5BDE88901BDE80088BDE889011E
:101E6000BDE80048B619524141EB0101A3F101035D
:101E7000704780807F7E7D7C7B7A797877767675F7
:101E80007473727171706F6E6E6D6C6C6B6A6A696F
:101E90006868676666656464636362616160605F09
:101EA0005F5E5E5D5D5C5C5B5B5A5A595958585782
:101EB00057565655555554545353525252515150EA
:101EC00050504F4F4F4E4E4D4D4D4C4C4C4B4B4B3D
:101ED0004A4A4A4949494848484747474746464683
:101EE00045454544444444434343434242424241BE
:101EF0004141000046EA0646A3F570534FEA1646F4
:101F000046EA42564FEAD22242EA415210B54FEA1F
:101F1000D121A3F1010300F02FF820F0004000F1DF
:101F2000020C00F0004701EB00501146BCF5006FB9
:101F300040EA070000D210BDBAF1000F0AD01CB56C
:101F400003B44FF004004FF004014FF000000FBC49
:101F5000BDE810404FF00001BBF1010FB9BF0448CC
:101F60004FF0FF310348002140EA070010BD00BFD9
:101F7000FFFFEF7F0000F07F002B9C4630D47700FE
:101F80002BD01CB54FEA370703B44FF010004FF0C9
:101F90001001BAF1000F06D0BCF1000FDCBF40F019
:101FA000080040F008014FF000000FBCBDE81040F1
:101FB0000BF1010BBBF1010F08BF5FEA170722BF4E
:101FC00012F1010211F101014FF0004143F1000350
:101FD00000F0004043EA00007047F9D35708D0E70B
:101FE00046EA064613F1400F4FEA16461FDD13F18D
:101FF000200FDFBF16430A46002120335B42BED0CC
:10200000C3F1200746EA064602FA07F74FEA1646EA
:1020100046EA0706C3F1200722FA03F201FA07F79E
:1020200021FA03F14FF0000342EA0702A7E746EA6C
:10203000020646EA06464FEA164646EA0106BCBFD5
:1020400046EA0646360C4FF000034FF000024FF010
:10205000000194E72DE9804C9A46934670B491E8CC
:10206000380007C831EA400C48BF34EA430C03D5B6
:10207000FFF7A3FDFFF780FFF0BCBDE8008C2DE962
:10208000804C9A46934670B491E8380007C831EA0C
:10209000400C48BF34EA430C03D5FFF78EFDFFF731
:1020A00029FFF0BCBDE8008C2DE9804C9A46934690
:1020B00070B491E8380007C810F0804F08BF13F0E3
:1020C000804F03D100F01AF8FFF756FFF0BCBDE8CF
:1020D000008C2DE9804C9A46934670B491E8380004
:1020E00007C810F0804F08BF13F0804F03D100F0F5
:1020F00005F8FFF7FFFEF0BCBDE8008C20F07F473D
:1021000080EA030023F07F4C07EB0C03A3F57C531C
:1021100000F00040A3F1FE0392F0000F00F0B38046
:1021200095F0000F00F077802DE901494FEA11404A
:102130004FEA144621EA004800FB06FC24EA064761
:1021400008FB06F607FB08F800FB07F718EB064844
:102150004CEB164C4FEA124B18EB07484FEA15466A
:102160004CEB174022EA0B4E0BFB06FC25EA064718
:102170000EFB06F607FB0EFE0BFB07F71EEB064EEB
:102180004CEB164C4FF000061EEB074E4CEB174B7A
:1021900018EB0B0840F1000018EB0E0B58EB000891
:1021A00040F100008F1A4FF000013CBFC943661B8D
:1021B00014BFB5EB040C00213CBFC943F61B4FEA2A
:1021C00017444EEA8E0E27EA04454FEA1C4704FBEB
:1021D00007622CEA074C05FB07F70CFB05F604FB2E
:1021E0000CFC16EB074642EB174216EB0C4642EB93
:1021F0001C421BEB060658EB0202414146EA9E06D2
:1022000001D5BDE80189B619524141EB0101A3F1A5
:102210000103BDE801894FEA14454FEA114724EA5A
:10222000054621EA074C05FB07F406FB07F70CFB04
:1022300006F105FB0CFC11EB074144EB17444FEA98
:10224000124711EB0C4144EB1C4422EA074C05FBFE
:1022500007F206FB07F70CFB06F605FB0CFC16EB7A
:10226000074642EB174216EB0C4642EB1C456A1838
:1022700054F1000148BF7047B619524141EB0101CA
:10228000A3F10103704795F0000F37D04FEA1142D8
:102290004FEA144721EA024624EA074C02FB07F101
:1022A00006FB07F70CFB06F402FB0CFC14EB0744DF
:1022B00041EB17414FEA154714EB0C4441EB1C412D
:1022C00025EA074C02FB07F506FB07F70CFB06F6B1
:1022D00002FB0CFC16EB074645EB174516EB0C46CC
:1022E00045EB1C42121951F1000148BF7047B61965
:1022F000524141EB0101A3F1010370474FEA14453C
:102300004FEA114724EA054621EA074C05FB07F18D
:1023100006FB07F70CFB06F24FF0000605FB0CFC72
:1023200012EB074241EB174112EB0C4251EB1C41FF
:1023300048BF7047921841EB0101A3F101037047B8
:1023400070B5044600688168C943C90717D1816820
:1023500021F00101816001F02FFC05460AE000BF79
:1023600001F02AFC401B022804D920688068C04381
:10237000C00706D020688068C043C007F0D00020A6
:1023800070BDA06A40F01000A062E06A40F0010059
:10239000E062012070BD0000F8B5002604460096FA
:1023A00000688168C943C9072DD0816841F00101E7
:1023B0008160164816490068B0FBF1F000E0401E4D
:1023C00000900028FBD101F0F7FB054616E000BFA6
:1023D00001F0F2FB401B022810D920688068C0433E
:1023E000C0070BD0A06A40F01000A062E06A40F085
:1023F0000100E06284F824600120F8BD2068806854
:10240000C043C007E4D10020F8BD00003C0000201C
:1024100040420F0070B5054610480C46006809F0B0
:1024200061FB294609F056FC0D4E054684F000403C
:10243000716809F083FB0B4909F022FA04460A4946
:10244000306809F01DFA294609F078FB214609F0A9
:1024500041FCBDE8704009F009BB00000800002005
:10246000F80100200000C8420000C8C2014800F086
:10247000B9BC000038020020FEE700002DE9F04161
:102480006C4C606801287DD16B486D4906686B48CB
:1024900005686C48006809F0F3F920616A4850212A
:1024A000006860616948FEF7EEF8684868A109684D
:1024B00001600A2100F5AC70FEF7E5F8DFF89481C1
:1024C000002740460A2140F8627F4760078108F1F3
:1024D0006C00FEF7D8F840460A2140F8767F476046
:1024E000078108F18000FEF7CEF808F1800040F87F
:1024F0000A7F47600781584FBE4243DCDFF85C81AA
:1025000046453FD8304609F01BF9024651480B4674
:1025100053A15830FDF7E2FEBD4233DC454531D8CA
:10252000284609F00DF902464A480B464CA1623094
:10253000FDF7D4FE4C492069884278D24B49884245
:1025400075DA09F0FDF8024642480B4644A16C30AA
:10255000FDF7C4FE46496069884268D24549884211
:1025600065DA09F0EDF802463A480B463CA17630B0
:10257000FDF7B4FE37480022134639A18030FDF73D
:10258000ADFE00E053E03C48006810F1FF4F4ED232
:102590003A4988424BDA09F0D3F802462D480B46F7
:1025A0002FA18A30FDF79AFE2A4928485831FDF7B5
:1025B000DFFF33A12548FDF7DBFF264923486231C1
:1025C000FDF7D6FF2FA12148FDF7D2FF21491F4873
:1025D0006C31FDF7CDFF2CA11C48FDF7C9FF1D494B
:1025E0001A487631FDF7C4FF28A11848FDF7C0FF4F
:1025F000184916488031FDF7BBFF26A11348FDF7A7
:10260000B7FF144911488A31FDF7B2FF22A10F48E4
:10261000FDF7AEFF0D4850215030FEF734F8BDE80D
:10262000F0410A49502201F15000FDF7F2BFBDE828
:10263000F08100009C000020F0000020F400002049
:102640000000C8422400002010000020D003002019
:10265000244C5600D004002000007A4400007AC4C4
:1026600025332E32660000000000FAC40000FA4450
:1026700000401CC600401C46EC0000200000A041A9
:102680002C5256002C4143002C4759002C435342F6
:10269000000000002C565400230000002DE9F041FA
:1026A0000D4C0A4607460B4E1046216809F046FAC3
:1026B000216B09F071F80146084809F03FFA054618
:1026C0003146384609F03AFA294609F065F82063A0
:1026D000BDE8F0810AD7A33C2401002048E17A3FFD
:1026E0002DE9F0410D4C0A4607460B4E1046216875
:1026F00009F024FA216E09F04FF80146084809F064
:102700001DFA05463146384609F018FA294609F0FF
:1027100043F82066BDE8F0810AD7A33C24010020DD
:1027200048E17A3F38B5002000906B4601227521C0
:10273000682007F0D5F931A0FDF7C4FD9DF8000031
:1027400068280CD0BFF34F8F35480168354A01F433
:10275000E06111430160BFF34F8F00BFFDE707F059
:1027600095FB002849D1782008F04EF810B923A035
:10277000FDF7A8FD782007F0BBFA10B92AA0FDF7F5
:10278000A1FDC82008F000F810B931A0FDF79AFDAE
:1027900006F0D0FB10B938A0FDF794FD434804467D
:1027A00007F010FA0546E01C07F00CFA45EAC005F0
:1027B000A01D07F007FA45EA801080B206F06AFD16
:1027C00010B93BA0FDF77EFD40F2731006F08AFAC7
:1027D00010B941A0FDF776FDC82006F0C3FC10B982
:1027E00047A0FDF76FFD08F009F9012007F0F2FEA0
:1027F000002802D14BA0FDF765FD38BD6D70755FF7
:102800007365745F73656E736F7220636F6D706C48
:10281000657465202E2E2E2E2E2E0D0A000000002F
:102820000CED00E00400FA056D70755F636F6E6675
:1028300069677572655F6669666F20636F6D706C3E
:10284000657465202E2E2E2E2E2E0D0A00000000FF
:102850006D70755F7365745F73616D706C655F72C9
:1028600061746520636F6D706C657465202E2E2E0B
:102870002E2E2E0D0A000000646D705F6C6F616477
:102880005F6D6F74696F6E5F6472697665725F66A3
:1028900069726D7761726520636F6D706C657465C8
:1028A000202E2E2E2E2E2E0D0A0000007400002049
:1028B000646D705F7365745F6F7269656E74617467
:1028C000696F6E20636F6D706C657465202E2E2E9F
:1028D0002E2E2E0D0A000000646D705F656E616221
:1028E0006C655F6665617475726520636F6D706C91
:1028F000657465202E2E2E2E2E2E0D0A000000004F
:10290000646D705F7365745F6669666F5F72617432
:102910006520636F6D706C657465202E2E2E2E2ED3
:102920002E0D0A006D70755F7365745F646D705F66
:10293000737461746520636F6D706C657465202EAF
:102940002E2E2E2E2E0D0A0070474FF4805000F0D0
:102950002BBF00000349002008600421024802F058
:1029600021BD00002404004068020020034900202B
:1029700008600421024802F015BD00002408004050
:10298000B002002072B6FEE72DE9F04F8DB004468C
:1029900004F09AFEBC49DFF8F4B2BD4F0860012C88
:1029A0007ED04421D02003F0DAF904464321D02020
:1029B00003F0D5F904EB002009F0ACF806464621F7
:1029C000D02003F0CCF904464521D02003F0C7F90C
:1029D00004EB002009F09EF882464821D02003F045
:1029E000BEF904464721D02003F0B9F904EB0020DA
:1029F00009F090F805463C21D02003F0B0F90446D8
:102A00003B21D02003F0ABF904EB002009F082F861
:102A100081463E21D02003F0A2F904463D21D0207A
:102A200003F09DF904EB002009F074F88046402182
:102A3000D02003F094F904463F21D02003F08FF911
:102A400004EB002009F066F80446B6F18E4F05DD70
:102A50004FF08F41304609F03DF906465046BAF135
:102A60008E4F04DD4FF08F4109F034F98246B5F105
:102A70008E4F05DD4FF08F41284609F02BF90546B2
:102A80004846B9F18E4F04DD4FF08F4109F022F92D
:102A900081464046B8F18E4F06DD4FF08F4100E091
:102AA00060E009F017F98046B4F18E4F05DD4FF074
:102AB0008F41204609F00EF9044686F00041484651
:102AC000CBF8001008F03CFEDFF8C891DFF8C8B181
:102AD0004A465B46CDE9090108F03AF908F04AF8A0
:102AE0000C90404608F02CFE4A465B46CDE90701B3
:102AF00008F02EF908F03EF80B90204608F020FE72
:102B00004A465B46CDE9010108F022F908F032F8A7
:102B10000090304608F014FEDFF880914FF06636E2
:102B200032464B46CDE9050108F012F908F022F8CB
:102B30008046504608F004FE32464B46CDE903017C
:102B400008F006F908F016F806465548DFF854A1D3
:102B5000DFF854B10078DFF8549102281ED0032822
:102B600043D089E004F0C6FC5148524C39680160FA
:102B7000B4F9000008F0B6FFCBF80000B4F9040087
:102B800008F0B0FF4C4908604C48B0F9040008F068
:102B9000A9FF4B4908600DB0BDE8F08F88F00042F6
:102BA00000990B9803F0A8FA08F0CAFD52465B465C
:102BB00008F0CEF800224B4608F0B2FA07F0DAFF30
:102BC0003860324600990C9803F0C2FB08F0B8FD5B
:102BD00052465B4608F0BCF800224B4608F0A0FACB
:102BE00007F0C8FF3749086046E0DDE901210B46E0
:102BF000DDE9070105F0A8FE00224B4608F090FA37
:102C000052465B4608F0A4F807F0B4FFDDE9012165
:102C100080460B46DDE9090105F096FE00224B4691
:102C200008F07EFA52465B4608F092F807F0A2FFE1
:102C30000646DFF894A0DDE905014FF066394A4603
:102C4000534608F085F807F095FF01464046FFF728
:102C500025FD80F000403860DDE903014A46534617
:102C600008F076F807F086FF01463046FFF738FD9A
:102C700080F00041134801600D48396801600E483A
:102C800005600F48046086E7200000201000002047
:102C9000600000208FC2F5285C1F9A40665E8D4060
:102CA00000000020F1D4C853FB2109400080664099
:102CB0000C00002068000020140000206E0000209E
:102CC000240000205C0000206666304010B500F053
:102CD00007F8BDE81040014908F030BFC3F5804057
:102CE00010B5094800F068FC3221074800F098FB55
:102CF000054800F021FA80B208F00CFFBDE8104052
:102D0000024908F01BBF0000380200203333533A59
:102D10002DE9F35F08F0B0F92A4D00222B4608F0A8
:102D2000FFF96FF00106324609F080F8264F0022C5
:102D30003B4608F00DF8DFF894B000225B4608F03F
:102D400007F807F017FF08F0FBFCDFF88480DFF8D6
:102D5000849042464B4608F0E3F900221E4B08F0EF
:102D6000DFF9DFF878A00022534607F0F1FF07F003
:102D700001FF1B4C2060019808F07EF900222B46D1
:102D800008F0CEF9324609F051F800223B4607F030
:102D9000DFFF00225B4607F0DBFF07F0EBFE08F0E9
:102DA000CFFC42464B4608F0BBF900220A4B08F024
:102DB000B7F90022534607F0CBFF07F0DBFE606057
:102DC000BDE8FC9F0000694000003E400000264036
:102DD000F1D4C853FB21094000C0504000002440FA
:102DE000F0000020F8B50025044600950068394938
:102DF000884209D03849884206D03849884203D0F1
:102E00007E2137A005F08EFC94F8240001280BD019
:102E1000012084F824002046FFF792FA2046FFF7AD
:102E2000BBFA060002D050E00220F8BDA06A20F4F0
:102E3000885040F00200A062022001F007F83549F6
:102E40000968B1FBF0F0400000E0401E009000284F
:102E5000FBD12068816841F00801816000F0ACFE80
:102E6000074608E000F0A8FEC01B0A2803D9206826
:102E70008068000715D4206880680007F2D42068B5
:102E8000816841F00401816000F096FE074612E07F
:102E900000F092FEC01B0A280DD920688068400708
:102EA00009D5A06A20F0020040F01000A06284F86A
:102EB00024500120F8BD206880684007E8D4A06A4B
:102EC00020F0020040F00100A06284F82450304657
:102ED000F8BD00000024014000280140003C0140F2
:102EE0002E2E2F53544D3332463178785F48414C63
:102EF0005F4472697665722F5372632F73746D33FA
:102F000032663178785F68616C5F6164635F6578B1
:102F10002E6300003C0000202DE9F8430026054602
:102F200000960068734F0C46B046B8420AD072490A
:102F3000884207D07149884204D040F2D67170A00F
:102F400005F0F0FB206830B3012824D0022822D0FD
:102F5000032820D004281ED005281CD006281AD00B
:102F6000072818D0082816D0092814D00A2812D00B
:102F70000B2810D00C280ED00D280CD00E280AD00B
:102F80000F2808D0102806D0112804D040F2D7719D
:102F90005BA005F0C7FB6068012822D0022820D082
:102FA00003281ED004281CD005281AD0062818D0C3
:102FB000072816D0082814D0092812D00A2810D0C3
:102FC0000B280ED00C280CD00D280AD00E2808D0C3
:102FD0000F2806D0102804D04FF4FB6148A005F05C
:102FE000A1FBA06890B1012810D002280ED00328C0
:102FF0000CD004280AD0052808D0062806D00728B7
:1030000004D040F2D9713EA005F08CFB95F8240065
:10301000012812D0012085F8240060681F210728AC
:103020000ED22B685A6B401E00EB800081408A4311
:10303000216881400A435A631AE00220BDE8F88300
:103040002A680D280AD2136BC01F00EB8000814054
:103050008B43216881400B43136309E0D36A0D3829
:1030600000EB800081408B43216881400B43D36299
:10307000206807212A680A280AD3D3680A3800EB97
:10308000400081408B43A16881400B43D36008E03E
:10309000136900EB400081408B43A16881400B43E2
:1030A00013612068102801D011281FD12868B84268
:1030B00017D18168090219D4816841F40001816047
:1030C0002068102812D11A481A490068B0FBF1F0A4
:1030D00000EB8000400000E0401E00900028FBD183
:1030E00004E0A86A40F02000A862012685F8248048
:1030F0003046A3E70024014000280140003C014085
:103100002E2E2F53544D3332463178785F48414C40
:103110005F4472697665722F5372632F73746D33D7
:1031200032663178785F68616C5F6164632E63003A
:103130003C00002040420F0010B5044600680849DA
:1031400088420AD00749884207D00749884204D0FC
:1031500040F2E56105A005F0E5FA2068C06C10BDFD
:103160000024014000280140003C01402E2E2F5336
:10317000544D3332463178785F48414C5F44726930
:103180007665722F5372632F73746D3332663178A4
:10319000785F68616C5F6164632E63002DE9F047BE
:1031A00004004FF000057CD075492068754E8842B8
:1031B00009D07549884206D0B04204D040F2A91126
:1031C00072A005F0AFFA606838B1B0F5006F04D0B6
:1031D0004FF4D5716DA005F0A5FAA0684FF4807981
:1031E00030B1484504D040F2AB1168A005F09AFA1E
:1031F000207B30B1012804D04FF4D67163A005F0D4
:1032000091FAE0694FF400284FF4402AB8B1B0F5C4
:10321000003F14D0B0F5C02F11D040450FD0B0F50D
:10322000202F0CD050450AD0B0F5802F07D0B0F534
:10323000602F04D040F2AD1154A005F073FAA068DD
:1032400000281CD02069401E0F2804D940F2B1117B
:103250004EA005F067FA207D88B1012806D04FF412
:10326000D9714AA005F05EFA207D40B1A069401EE8
:10327000072804D940F2B51144A005F053FAA06A1A
:10328000002728B9E76284F82470204600F09CF8F3
:103290002046FFF755F8A16AC90600D430B1A06AEC
:1032A00000E06BE040F01000A06267E0A16A21F44A
:1032B000885141F00201A1622368E169B34202D161
:1032C000514500D14146267BCC4641EA4602616821
:1032D0000A43A168614509D0012907D05FF00001C8
:1032E00094F81480B8F1010F02D00AE04946F7E7DC
:1032F000C6B1A66A46F02006A662E66A46F0010656
:10330000E6625E6826F469460E435E60236899684B
:103310002A4E314011439960A16861450BD00129C3
:1033200009D00CE0DFF89880A66908EB46360E431A
:1033300046F40061E5E7218A0D05A5F580152168B1
:10334000CB6A23F470032B43CB62216889681D4B41
:103350001940914208D1E762A16A21F0020141F0CF
:103360000101A162BDE8F087A06A20F0020040F0F0
:103370001000A062E06A40F00100E0620120F1E785
:1033800000240140003C0140002801402E2E2F5314
:10339000544D3332463178785F48414C5F4472690E
:1033A0007665722F5372632F73746D333266317882
:1033B000785F68616C5F6164632E6300FDF7E1FF15
:1033C00000E0FFFFFE0E1FFF00B585B00021009159
:1033D00001910291039100680E49884218D10E486C
:1033E000816941F400718161816901F40071049186
:1033F000816941F0040181618069694600F004003F
:1034000004902020009003200190044800F0D8F997
:1034100005B000BD0024014000100240000801403A
:103420002DE9F84300270D460446009700685049EF
:1034300088420AD04F49884207D04F49884204D079
:1034400040F2B3414DA005F06DF900F0B5FB8046A8
:1034500020688168C90508D5A06A40F02000A062F4
:1034600084F824700120BDE8F8834168C90503D4BD
:10347000C06A10F4700F2AD0022000F0E7FC4B491C
:103480000968B1FBF0F62068036949490B424FEA2D
:1034900061014FEAA1121FD1C3684FEA611C13EA10
:1034A0000C0F19D103690B4225D1C068104222D1FB
:1034B000142023E0681C0AD02DB100F07DFBA0EBA6
:1034C0000800A84203D920680068800725D5206835
:1034D00000688007EED52DE003690B4202D1C16878
:1034E000114206D0026933490A4206D1C068084237
:1034F00003D1542002E0292000E0FC20464300983C
:1035000016E0681C11D02DB100F056FBA0EB0800AE
:10351000A8420AD90098B04207D2A06A40F004003D
:10352000A06284F8247003209DE70098401C00905E
:10353000B042E6D321686FF012000860A06A40F440
:103540000070A06220688068C0F3424007280CD158
:10355000207B50B9A06A20F48070A062A06AC004E9
:1035600003D4A06A40F00100A06200207BE70000C5
:103570000024014000280140003C01402E2E2F5322
:10358000544D3332463178785F48414C5F4472691C
:103590007665722F5372632F73746D333266317890
:1035A000785F68616C5F6164632E63003C0000209B
:1035B000244992244992240070B504460068344995
:1035C000344D884209D0A84207D03349884204D0FC
:1035D00040F2114131A005F0A5F894F8240001282B
:1035E0000DD0012084F824002046FEF7D5FE02000D
:1035F0004FF0000005D084F82400104670BD022072
:1036000070BDA16A40F20123994341F48071A16227
:103610001F492368091DAB4218D10E6816F4702F9C
:1036200014D0A66A46F48016A6620E68760505D503
:10363000A66A26F4005646F48056A662A66AF604E8
:103640000AD5E66A26F00606E66206E0A66A26F4D1
:103650008016A6625E68E9E7E06284F824006FF0F5
:103660000200186020688368C3F34243072B05D12A
:10367000A84208D1096811F4702F04D0816841F480
:1036800080118160B9E7816841F4A001F9E7000089
:103690000024014000280140003C01402E2E2F5301
:1036A000544D3332463178785F48414C5F447269FB
:1036B0007665722F5372632F73746D33326631786F
:1036C000785F68616C5F6164632E630070B5044667
:1036D00000F072FA0546601C02D0044800780444E9
:1036E00000F06AFA401BA042FAD370BD30000020FF
:1036F0002DE9F047B0F5805F44D123480078FFF70B
:1037000043F9002003F0CEFF0546012003F0CAFF75
:10371000444221462846FFF7FBFA1C481C4F01682B
:103720003868FEF777FE06462146284604F0DCFCA2
:1037300005461848006804F093FB044635442819F0
:1037400003F0FBFBDFF8508040F62829424649464B
:1037500003F0FCFB114E3060281B03F0EEFB4246E9
:10376000494603F0F3FB0E4C20600E4801683868B0
:1037700004F052FB002805D121683068BDE8F0470D
:1037800004F03AB8BDE8F0870000002010000020E7
:103790000C00002014000020D8F5FFFF18000020C6
:1037A0001C000020EC000020044910B50A68024209
:1037B00002D00860FFF79CFF10BD00001404014018
:1037C0002DE9F84F0027DFF8BCA2DFF8BCB20D46A8
:1037D0000446B946504514D05C4512D0AB488442EB
:1037E0000FD0AB4884420CD0AA48844209D0AA48E2
:1037F000844206D0A948844203D0BD21A8A004F089
:1038000091FF28680104090C01D0000C03D0BE21EF
:10381000A3A004F087FF686800281FD00128FCD00F
:103820001128FAD00228F8D01228F6D0A9498842E7
:10383000F3D0A9498842F0D0A8498842EDD0A849E0
:103840008842EAD0A7498842E7D0A7498842E4D015
:103850000328E2D0BF2192A004F064FF0BE1012015
:1038600000FA07F801EA0806464574D1544514D019
:103870005C4512D0854884420FD0854884420CD0E4
:103880008448844209D08448844206D083488442D4
:1038900003D0CD2182A004F045FF8E4869680A1A42
:1038A000814259D00EDC032975D006DC002953D0A3
:1038B000012919D0022969D131E0112921D0122919
:1038C00064D13AE0B2F5881F46D006DCB2F5803FFD
:1038D00042D0B2F5801F59D13EE0B2F5001F3BD077
:1038E000B2F5041F52D137E0E868022807D001285A
:1038F00005D0032803D0D52169A004F013FFE868A0
:103900003EE0E868022807D0012805D0032803D04C
:10391000DC2163A004F006FFE868001D30E0E868E1
:10392000022807D0012805D0032803D0E3215CA09A
:1039300004F0F8FEE868083022E0E868022807D0C2
:10394000012805D0032803D0EA2155A004F0EAFE9F
:10395000E8680C3014E08DE0A86880B1012811D02F
:10396000022807D0F7214EA004F0DCFEA86830B191
:10397000012807D04FF00809C4F8148006E004209D
:10398000814603E04FF00809C4F81080FF2E05D8E7
:10399000224605E0FFE74FF00000F1E704F10402E2
:1039A0004FEA870001D9A0F1200013684FF00F0102
:1039B00001FA00FC23EA0C0309FA00FC43EA0C03B9
:1039C00013606868C00055D54848826942F001021A
:1039D0008261806927F0030200F0010000904448F2
:1039E00013189868BA07120F91408843544501D1C3
:1039F000002118E05C4501D1012114E023498C42EB
:103A000001D102210FE022498C4201D103210AE0B9
:103A100020498C4201D1042105E01F498C4201D18B
:103A2000052100E006219140014399606868C002C9
:103A30003048016801D5314300E0B1430160686856
:103A400080022D48016801D5314300E0B143016097
:103A5000686880032948016801D5314300E0B1431B
:103A600001606868C0032648016801D5314300E061
:103A7000B14301607F1C2E683146FE407FF4EFAEFB
:103A8000BDE8F88F00080140000C01400010014023
:103A90000014014000180140001C014000200140BA
:103AA0002E2E2F53544D3332463178785F48414C97
:103AB0005F4472697665722F5372632F73746D332E
:103AC00032663178785F68616C5F6770696F2E630A
:103AD0000000000000001110000021100000311053
:103AE00000001210000022100000321000100240EE
:103AF00000000140080401400C040140040401409E
:103B00000004014070B50C00054604D14FF4DA7191
:103B100003A004F007FEA868204000D0012070BD7B
:103B20002E2E2F53544D3332463178785F48414C16
:103B30005F4472697665722F5372632F73746D33AD
:103B400032663178785F68616C5F6770696F2E6389
:103B50000000000070B515460C00064604D14FF475
:103B6000EA7108A004F0DEFD45B1012D04D040F259
:103B7000D51104A004F0D6FD346170BD200430617D
:103B800070BD00002E2E2F53544D333246317878BD
:103B90005F48414C5F4472697665722F5372632FA0
:103BA00073746D3332663178785F68616C5F67700B
:103BB000696F2E63000000000148806870470000B4
:103BC000300000200248816802781144816070470B
:103BD00030000020074810B5016841F01001016075
:103BE000032000F0F7F8002000F006F800F024F8B9
:103BF000002010BD0020024070B50D4D04464FF46A
:103C00007A712878B1FBF0F00A490968B1FBF0F04D
:103C100000F009FE48B9102C07D200222146501EA0
:103C200000F08CF800206C6070BD012070BD0000B9
:103C3000300000203C0000200E4808B5816941F0AA
:103C400001018161816901F001010091C16941F0C7
:103C50008051C161C06900F080500090052000F0E3
:103C6000B9F80548416821F0E06141F00071416018
:103C700008BD0000001002400000014010B5040023
:103C800003D5CD2109A004F04DFD002C0DDB04F07F
:103C90001F01012088406109890001F1E021C1F87C
:103CA0008001BFF34F8FBFF36F8F10BD2E2E2F53A8
:103CB000544D3332463178785F48414C5F447269E5
:103CC0007665722F5372632F73746D333266317859
:103CD000785F68616C5F636F727465782E63000053
:103CE00010B5040003D5BD2107A004F01BFD002C76
:103CF00009DB04F01F01012088406109890001F1FE
:103D0000E021C1F8000110BD2E2E2F53544D333247
:103D1000463178785F48414C5F4472697665722F0E
:103D20005372632F73746D3332663178785F6861D4
:103D30006C5F636F727465782E63000070B5154612
:103D40000C460646102A03D3A92114A004F0EAFC6D
:103D5000102C03D3AA2111A004F0E4FC1C48006835
:103D6000C0F30223C3F107022046042A00D904222B
:103D7000191D072901D2002300E0DB1E012404FAEB
:103D800002F1491E014099409C40641E2C40214391
:103D90003046BDE8704004F03BBA00002E2E2F5391
:103DA000544D3332463178785F48414C5F447269F4
:103DB0007665722F5372632F73746D333266317868
:103DC000785F68616C5F636F727465782E63000062
:103DD0000CED00E010B5044607280BD0062C09D0E6
:103DE000052C07D0042C05D0032C03D0912108A06A
:103DF00004F098FC134904F0070208684FF6FF032B
:103E0000184040EA0220104A1043086010BD00002C
:103E10002E2E2F53544D3332463178785F48414C23
:103E20005F4472697665722F5372632F73746D33BA
:103E300032663178785F68616C5F636F7274657841
:103E40002E6300000CED00E00000FA0570B5064698
:103E50000025C0070CD1B0070AD4700708D430077A
:103E600006D4F00604D44FF4CA712AA004F05AFC18
:103E7000354C042E27D004DC012E28D0022E3ED152
:103E80003FE0082E1FD0102E39D160682168C9018B
:103E900035D52E49C0F38342C0038D5C09D56068D7
:103EA000891EC0F34040085C2949B1FBF0F045434E
:103EB00001E0284845436068400220D4680003219F
:103EC000B0FBF1F51BE000F043FA054617E0216A6C
:103ED000C1F30120012803D1890701D5C5030EE0F4
:103EE000022805D1616A890702D549F6404506E0F6
:103EF000032804D12068800301D54FF224452846C9
:103F000070BD00F015FA6168C1F38131491C4900A8
:103F1000D6E700002E2E2F53544D33324631787899
:103F20005F48414C5F4472697665722F5372632F0C
:103F300073746D3332663178785F68616C5F726379
:103F4000635F65782E6300000010024024BF000804
:103F500000127A0000093D002DE9F843044600688C
:103F6000524DC1070ED1810773D441077ED401079A
:103F7000FCD4C0067BD46A214DA004F0D3FB20788A
:103F8000C00763D06068002660B1B0F5807F09D0BB
:103F9000B0F5007F06D0B0F5407F03D0722144A079
:103FA00004F0C0FBE869C00008D4E86940F0805024
:103FB000E861E869012600F08050009049480168F6
:103FC000C90512D40168804641F480710160FFF791
:103FD000F3FD074605E000BFFFF7EEFDC01B6428B8
:103FE00023D8D8F80000C005F6D5286A10F4407030
:103FF00021D0A18801F4407181421CD0286A3A493D
:10400000012220F440700A6000220A602862C00782
:1040100011D0FFF7D1FD074641F2883808E000BF14
:10402000FFF7CAFDC11B414502D90320BDE8F88353
:10403000286A8007F4D5286A616820F44070084334
:1040400028621EB1E86920F08050E861207880077E
:1040500017D5A06878B1B0F5804F0CD0B0F5004FFF
:1040600009D0B0F5404F06D0B72101E009E00BE0E0
:104070000FA004F057FB6868A16820F44040084393
:1040800068602078C0060FD56069B0F5800F05D054
:1040900020B140F2131106A004F044FB6868616986
:1040A00020F48000084368600020BFE70010024051
:1040B0002E2E2F53544D3332463178785F48414C81
:1040C0005F4472697665722F5372632F73746D3318
:1040D00032663178785F68616C5F7263635F6578C0
:1040E0002E63000000700040400442422DE9F0477A
:1040F0000F46050078D02868C1070AD1810708D487
:10410000410706D4000704D440F236316FA004F012
:1041100009FB47B1012F06D0022F04D040F23731FE
:104120006AA004F0FFFA754E306800F00700B8424C
:1041300009D2306820F0070038433060306800F062
:104140000700B84277D128686D4C810729D5400710
:1041500003D5606840F4E06060602878000703D50C
:10416000606840F460506060A868A0B1802812D0F8
:10417000902810D0A0280ED0B0280CD0C0280AD08B
:10418000D02808D0E02806D0F02804D040F25D31D5
:104190004EA004F0C7FA6068A96820F0F000084358
:1041A00060602878C00737D0686868B101281CD0E3
:1041B00002281DD04FF4597144A004F0B3FA686886
:1041C000012812D0022813D020688007002832DA94
:1041D0006068696820F0030008436060FFF7ECFC4A
:1041E000804641F2883910E025E020688003EDE741
:1041F00020688001EAE700BFFFF7DEFCA0EB0801C2
:10420000494502D90320BDE8F0876068696800F07D
:104210000C00B0EB810FEFD1306800F00700B8421E
:104220000BD9306820F0070038433060306800F068
:104230000700B84201D00120E5E728784FF48066F6
:1042400040074FF4A0674FF4C0684FF4E06914D5FD
:10425000E86860B1B0420AD0B84208D0404506D004
:10426000484504D040F2A23118A004F05BFA60681F
:10427000E96820F4E060084360602878000715D5FD
:10428000286960B1B0420AD0B84208D0404506D093
:10429000484504D040F2A9310CA004F043FA60680C
:1042A000296920F4605040EAC100606000F050F8D5
:1042B0006168144AC1F30311515CC8401249086097
:1042C00012480068FFF798FC00209CE72E2E2F5321
:1042D000544D3332463178785F48414C5F447269BF
:1042E0007665722F5372632F73746D333266317833
:1042F000785F68616C5F7263632E63000020024028
:104300000010024034BF00083C00002034000020B0
:104310000448054900684968044AC1F30221515C18
:10432000C84070473C0000200010024044BF000815
:104330000448054900684968044AC1F3C221515C38
:10434000C84070473C0000200010024044BF0008F5
:104350000E4A51680E4801F00C03042B11D0082BB3
:104360000FD10C48C1F38343C903C05C0AD551681F
:10437000084AC1F34041921E515C054A5043B0FBCC
:10438000F1F07047044948437047000000100240B4
:1043900000127A0012BF000800093D002DE9F84F15
:1043A00004007DD0FB4EFC4D20684FF0010A4FF019
:1043B00000084FF4803960B1C1070DD1810762D484
:1043C00001076ED440076DD440F26511F3A004F0EC
:1043D000A9F92078C00753D060684FF4A02740B1F6
:1043E000484506D0B84204D040F26B11EBA004F06F
:1043F00099F96868C0F38100012807D06868C0F3A4
:104400008100022809D16868C00306D528688003A6
:1044100036D560680028C4D032E06068484503D1D2
:10442000286840F4803009E008B1B8420DD028680F
:1044300020F480302860286820F48020286060689C
:1044400088B1FFF7B9FB074609E0286840F48020EF
:104450002860E5E7FFF7B0FBC01B642877D8286821
:104460008003F7D50CE0FFF7A7FB074605E000BF88
:10447000FFF7A2FBC01B6428F0D828688003F7D49C
:10448000207880074ED5206930B1012804D040F251
:104490009F11C2A004F046F960691F2808D902E004
:1044A00096E042E07BE04FF4D071BCA004F03AF912
:1044B000686810F00C0F07D06868C0F3810002280C
:1044C00009D16868C00306D42868800714D520691C
:1044D00001287DD110E02069B0B1C6F800A0FFF737
:1044E0006BFB074605E000BFFFF766FBC01B022819
:1044F000B4D828688007F7D52868616920F0F800EB
:1045000040EAC10028600DE0C6F80080FFF754FBC8
:10451000074604E0FFF750FBC01B02289ED828681E
:104520008007F7D42078000736D5A84FA06920B3BC
:10453000012806D04FF4F07198A004F0F3F8A069B8
:10454000D8B1C7F800A0FFF737FB074605E00AE13E
:10455000FFF732FBC01B02288ED8686A8007F7D5A8
:104560009B484FF4FA510068B0FBF1F0009000BF97
:104570000098411E0091FAD20EE0C7F80080FFF7C4
:104580001BFB074605E000BFFFF716FBC01B022818
:10459000AED8686A8007F7D4207840076ED5E06807
:1045A000002740B1012806D0052804D040F20F2191
:1045B0007AA004F0B7F8E869C00008D4E86940F0D0
:1045C0008050E861E869012700F08050009000E029
:1045D00025E180480168C90512D4016841F4807161
:1045E0000160FFF7E9FA834606E000BFFFF7E4FA4F
:1045F000A0EB0B00642891D876480068C005F5D57B
:10460000E06801280AD008B1052811D0286A20F0F6
:1046100001002862286A20F0040002E0286A40F0C5
:1046200001002862E068A8B1FFF7C6FA83460DE0F2
:10463000286A40F004002862F0E700BFFFF7BCFAE8
:10464000A0EB0B0141F28830814285D8286A8007AF
:10465000F4D50EE0FFF7B0FA834607E0FFF7ACFAB7
:10466000A0EB0B0141F2883081427CD8286A800798
:10467000F4D41FB1E86920F08050E861E0690028B7
:1046800072D0012809D0022807D040F2AD2143A002
:1046900004F048F8E069002866D06868C0F381003B
:1046A0000228E06974D0022805D0C6F86080FFF7C0
:1046B00083FA0446A2E0206A30B1484504D040F2B3
:1046C000B62136A004F02EF8606A70B3B0F5802FE2
:1046D0002BD0B0F5002F28D0B0F5402F25D0B0F565
:1046E000801F22D0B0F5A01F1FD0B0F5C01F1CD076
:1046F000B0F5E01F19D0B0F5001F16D0B0F5101FAF
:1047000013D0B0F5201F10D0B0F5301F0DD0B0F58C
:10471000401F0AD0B0F5501F07D0B0F5601F04D07D
:1047200040F2B7211DA003F0FDFFC6F86080FFF73F
:1047300043FA074605E000BFFFF73EFAC01B022818
:1047400059D828688001F7D4206A484512D1A0685A
:1047500038B1B0F5003F04D040F2CD210FA003F0F6
:10476000E1FF686801E046E05BE0A16820F400300A
:1047700008436860D4E908010843696821F47411AA
:1047800008436860C6F860A0FFF716FA044628E000
:1047900038E0000000004242001002402E2E2F534D
:1047A000544D3332463178785F48414C5F447269EA
:1047B0007665722F5372632F73746D33326631785E
:1047C000785F68616C5F7263632E630080044242AD
:1047D0003C00002000700040FFF7EEF9001B0228AB
:1047E00009D828688001F7D51BE000BFFFF7E4F97E
:1047F000001B022802D90320BDE8F88F2868800139
:10480000F4D40EE00128F7D06868226A00F4803101
:10481000914204D1616A00F47010884201D00120F5
:10482000EAE70020E8E710B5401EB0F1807F01D331
:10483000012010BD4FF0E02460610F21601703F0EC
:10484000E7FC0020A06107202061002010BD704718
:104850007047000070B50C46054600683E49884226
:1048600007D03E49884204D040F2F1713CA003F0E9
:1048700059FF2068B0F5006F05D020B140F2F27109
:1048800037A003F04FFF6068B0F5806F05D020B10E
:1048900040F2F37132A003F045FFA06868B1B0F5B3
:1048A000807F0AD0B0F5007F07D0B0F5407F04D0FC
:1048B00040F2F4712AA003F035FFE068FF2804D924
:1048C00040F2F57126A003F02DFF2069B0F5805F5E
:1048D00005D020B140F2F67121A003F023FF6069FA
:1048E00038B1B0F5005F04D040F2F7711CA003F0BE
:1048F00019FFE069B0F5804F05D020B14FF4FF619A
:1049000017A003F00FFF95F83C00012822D00120EA
:1049100085F83C00E068A26820F4407010436268AB
:1049200020F480601043226820F400601043226964
:1049300020F480501043626920F400501043E26973
:10494000002120F4804010432A68506485F83C1010
:10495000002070BD022070BD002C014000340140D9
:104960002E2E2F53544D3332463178785F48414CC8
:104970005F4472697665722F5372632F73746D335F
:1049800032663178785F68616C5F74696D5F6578F5
:104990002E6300002DE9F05F04460068364E374F65
:1049A000DFF8DC80DFF8DC90DFF8DCA00D464FF0AC
:1049B000804BB04214D0B84212D0584510D0404578
:1049C0000ED048450CD050450AD03049884207D017
:1049D0002F49884204D040F2B4712EA003F0A2FE09
:1049E000286890B1102810D020280ED030280CD084
:1049F00040280AD0502808D0602806D0702804D05B
:104A000040F2B57123A003F08DFE6868802805D0C0
:104A100020B140F2B6711FA003F084FE94F83C0070
:104A2000012827D0012284F83C20022084F83D0090
:104A3000216848688B6820F0700C286840EA0C00F8
:104A400048602068B04209D0B84207D0584505D028
:104A5000404503D0484501D0504504D1696823F052
:104A600080031943816084F83D20002084F83C00D5
:104A7000BDE8F09F0220FBE7002C0140003401401C
:104A80000004004000080040000C004000100040FE
:104A9000001400402E2E2F53544D33324631787877
:104AA0005F48414C5F4472697665722F5372632F81
:104AB00073746D3332663178785F68616C5F7469E6
:104AC0006D5F65782E63000010B5040051D03C493D
:104AD0002068884219D03B49884216D0B0F1804FF7
:104AE00013D03949884210D0384988420DD038490E
:104AF00088420AD03749884207D03749884204D0D3
:104B000040F2131135A003F00DFEA06860B110282B
:104B10000AD0202808D0402806D0602804D04FF4BE
:104B20008A712EA003F0FEFD206950B1B0F5807FA0
:104B300007D0B0F5007F04D040F2151127A003F094
:104B4000F1FDE0684FF6FE71401E884204D94FF433
:104B50008B7122A003F0E6FDA06930B1802804D05B
:104B600040F217111DA003F0DDFD94F83D0010B1D7
:104B700007E0012010BD002084F83C00204600F032
:104B800045F8022084F83D00211D206802F0D0FE87
:104B9000012084F8460084F83E0084F83F0084F841
:104BA000400084F8410084F8420084F8430084F80F
:104BB000440084F8450084F83D00002010BD00004A
:104BC000002C014000340140000400400008004077
:104BD000000C004000100040001400402E2E2F5307
:104BE000544D3332463178785F48414C5F447269A6
:104BF0007665722F5372632F73746D33326631781A
:104C0000785F68616C5F74696D2E630008B5114A46
:104C100001681148914211D1C16941F01001C1618F
:104C2000C069022200F01000009003213620FFF737
:104C300085F8BDE808403620FFF752B8074A914290
:104C400007D1816941F400518161806900F400500D
:104C5000009008BD001000400010024000340140E8
:104C60002DE9F04707460068234C244D244EDFF819
:104C70009480DFF894904FF0804AA04214D0A8426C
:104C800012D0504510D0B0420ED040450CD048450F
:104C90000AD01E49884207D01D49884204D04FF4EB
:104CA000E8711CA003F03EFD97F83D00012802D0FA
:104CB0000120BDE8F087022087F83D003868C16810
:104CC00041F00101C1603868A04209D0A84207D074
:104CD000504505D0B04203D0404501D0484504D1ED
:104CE000816801F00701062903D0016841F0010144
:104CF00001600020DDE70000002C0140003401408D
:104D00000004004000080040000C0040001000407B
:104D1000001400402E2E2F53544D333246317878F4
:104D20005F48414C5F4472697665722F5372632FFE
:104D300073746D3332663178785F68616C5F746963
:104D40006D2E63002DE9F05F054690F83C000C469F
:104D50004FF0000B01283ED0012085F83C000220D6
:104D600085F83D0020684FF480594FF4005A4845BB
:104D700015D0702813D0504511D040280FD050289E
:104D80000DD060280BD050B1102808D0202806D0B4
:104D9000302804D041F2BE41BDA003F0C3FC296815
:104DA000886820F0770020F47F4088602068C4493C
:104DB000C44AC54BC54EC64F4FF0804C4FF4004817
:104DC000502872D00FDC202804D007DC0028FBD04C
:104DD00010286BD13CE10220BDE8F09F3028F9D0CB
:104DE0004028F6D105E160287DD070285FD0484585
:104DF00042D05045EDD1286888420ED090420CD068
:104E000060450AD0984208D0B04206D0B84204D0DB
:104E100041F2E9419EA003F085FCA06858B14845E5
:104E200009D0504507D0B0F5405F04D041F2EC41C5
:104E300097A003F077FC6068404509D040B1022894
:104E400006D00A2804D041F2ED4191A003F06AFC9B
:104E5000E0680F2804D941F2EE418DA003F062FC16
:104E6000D4E90121E368286802F000FE286881681F
:104E700041F48041816002E128688842FBD0904281
:104E8000F9D06045F7D09842F5D0B042F3D0B8429F
:104E9000F1D090498842EED08F498842EBD041F260
:104EA000CA417BA003F03EFCE9E042E0E5E028686F
:104EB00088420ED090420CD060450AD0984208D06B
:104EC000B04206D0B84204D041F2D14170A003F004
:104ED00029FCA06868B148450BD0504509D0B0F511
:104EE000405F06D000E053E041F2D44168A003F0F7
:104EF00019FC6068404509D040B1022806D00A2854
:104F000004D041F2D54162A003F00CFCE0680F2808
:104F100004D941F2D6415EA003F004FCD4E901219A
:104F2000E368286802F0A2FD2868816841F07701F3
:104F3000A0E7286888420ED090420CD060450AD085
:104F4000984208D0B04206D0B84204D041F2FD41A8
:104F50004FA003F0E7FB6068404509D040B102284C
:104F600006D00A2804D04FF4A85149A003F0DAFB78
:104F7000E0680F2804D941F2015145A003F0D2FBAB
:104F8000E2686168286802F023FF502128682DE05C
:104F9000286888420ED090420CD060450AD09842D2
:104FA00008D0B04206D0B84204D041F20D5138A02A
:104FB00003F0B8FB6068404509D040B1022806D034
:104FC0000A2804D041F2105131A003F0ABFBE06895
:104FD0000F2804D941F211512DA003F0A3FBE26880
:104FE0006168286802F005FF6021286802F048FD2A
:104FF00045E0286888420ED090420CD060450AD027
:10500000984208D0B04206D0B84204D041F21D51B7
:105010001FA003F087FB6068404509D040B102281B
:1050200006D00A2804D04FF4A95119A003F07AFB46
:10503000E0680F2804D941F2215115A003F072FB5A
:10504000E2686168286802F0C3FE40212868CDE765
:10505000286888420ED090420CD060450AD0984211
:1050600008D0B04206D0B84204D041F2305108A076
:1050700003F058FB21682868B8E74FF0010B0120C6
:1050800085F83D00002085F83C005846A4E6000065
:105090002E2E2F53544D3332463178785F48414C91
:1050A0005F4472697665722F5372632F73746D3328
:1050B00032663178785F68616C5F74696D2E630069
:1050C000002C014000340140000400400008004072
:1050D000000C004000100040001400402DE9F04199
:1050E0000D4604007ED07B492068884213D07A495F
:1050F000884210D0B0F1804F0DD0784988420AD054
:105100007749884207D07749884204D040F6D831A1
:1051100075A003F007FBA06860B110280AD0202812
:1051200008D0402806D0602804D040F6D9316EA0BF
:1051300003F0F8FA206950B1B0F5807F07D0B0F5E0
:10514000007F04D040F6DA3167A003F0EBFAA069E3
:1051500030B1802804D040F6DB3163A003F0E2FADE
:105160002868012808D0022806D0032804D040F679
:10517000DC315DA003F0D6FAA868012808D0022827
:1051800006D0032804D040F6DD3157A003F0CAFA58
:10519000A869012808D0022806D0032804D040F6C8
:1051A000DE3151A003F0BEFA686830B1022804D0A5
:1051B00040F6DF314CA003F0B5FA686930B102283F
:1051C00004D04FF43E6148A003F0ACFAE86860B147
:1051D00004280AD0082808D00C2806D040F6E1316F
:1051E00041A000E02DE003F09DFAE86950B10428E9
:1051F00008D0082806D00C2804D040F6E2313AA0A6
:1052000003F090FA28690F2804D940F6E33136A05C
:1052100003F088FA286A0F2804D940F6E43132A056
:1052200003F080FAE0684FF6FE71401E884204D910
:1052300040F6E5312CA003F075FA94F83D0018B162
:1052400008E00120BDE8F081002084F83C00204601
:1052500000F062F8022084F83D002068816844F282
:10526000070291438160211D206802F061FB2168E3
:1052700088688A690E6A2B68AF69034340F203307D
:10528000824342EA0722A868EF6910434FF6FC42C6
:105290009043EA6840EA0720024328692F6A000128
:1052A00040EA073010436A686D6926F0220646EA34
:1052B00005152A438B602168886154F8460B026209
:1052C000012004F81F09E0752076E0762077A075AC
:1052D0000020B7E7002C01400034014000040040EA
:1052E00000080040000C00402E2E2F53544D333246
:1052F000463178785F48414C5F4472697665722F19
:105300005372632F73746D3332663178785F6861DE
:105310006C5F74696D2E630000B585B0002100914B
:105320000191029103911A4B02681A48C0219A42D6
:1053300013D1C26942F00202C261C26902F00202E4
:105340000492826942F0040282618069009100F057
:10535000040004906946104815E0104B9A4214D19D
:10536000C26942F00402C261C26902F004020492FE
:10537000826942F0080282618069009100F00800B1
:10538000049069460648FEF71BFA05B000BD000010
:1053900000040040001002400008014000080040E6
:1053A000000C01402DE9F04790F83E808946044604
:1053B00090F83F7090F8426090F8435000682D4993
:1053C000884213D02C49884210D0B0F1804F0DD0C4
:1053D0002A4988420AD02A49884207D02949884266
:1053E00004D040F6954128A003F09CF90220B9F1C1
:1053F000000F06D0B9F1040F10D0B8F1010F1CD185
:1054000015E0B8F1010F18D1012E16D184F83E0035
:1054100084F8420001220021206821E0012F0CD1F4
:10542000012D0AD184F83F0084F8430015E0012FD4
:1054300003D1012E01D1012D02D00120BDE8F0875A
:1054400084F83E0084F83F0084F8420084F843006A
:1054500001220021206802F0B1FA01220421206813
:1054600002F0ACFA2068016841F0010101600020FF
:10547000E4E70000002C014000340140000400403B
:1054800000080040000C00402E2E2F53544D3332A4
:10549000463178785F48414C5F4472697665722F77
:1054A0005372632F73746D3332663178785F68613D
:1054B0006C5F74696D2E6300704770B504460068B8
:1054C00001694FF00005C943890715D4C168C94374
:1054D000890711D4E91E01610120207720688069C5
:1054E0008007204602D0FFF7E7FF04E000F0BEF897
:1054F000204600F06CFA257720680169C943490706
:1055000017D4C168C943490713D46FF0040101617E
:10551000022020772068806910F4407F204602D066
:10552000FFF7CAFF04E000F0A1F8204600F04FFAB0
:10553000257720680169C943090716D4C168C943A2
:10554000090712D46FF00801016104202077206858
:10555000C0698007204602D0FFF7AEFF04E000F0EC
:1055600085F8204600F033FA257720680169C943A1
:10557000C90617D4C168C943C90613D46FF0100116
:105580000161082020772068C06910F4407F204620
:1055900002D0FFF791FF04E000F068F8204600F029
:1055A00016FA257720680169C943C90708D1C1687F
:1055B000C943C90704D1891E0161204600F0BAFA27
:1055C00020680169C943090609D4C168C9430906AD
:1055D00005D46FF0800101612046FFF738F920689B
:1055E0000169C943490609D4C168C943490605D4BC
:1055F0006FF040010161204600F0D6FA2068016991
:10560000C94389060BD4C168C943890607D46FF022
:10561000200101612046BDE87040FFF719B970BD57
:1056200000B585B0002100910191029103910068BD
:105630000B49884212D10B48816941F01001816108
:105640008069694600F0100004904FF4707000907B
:105650000220019003900448FEF7B2F805B000BDA7
:10566000003401400010024000100140704700006B
:105670002DE9F04716000D4604464FF000090CD006
:10568000042E0AD0082E08D00C2E06D03C2E04D0B2
:1056900041F27E016BA003F045F82868602806D02F
:1056A000702804D041F27F0166A003F03BF8A8689F
:1056B00030B1022804D04FF4845162A003F032F8D4
:1056C000286930B1042804D041F281015DA003F0C3
:1056D00029F894F83C00012818D001206549664A51
:1056E000664B674FDFF89CC184F83C004FF0804860
:1056F00076B1042E31D0082E56D00C2E7AD08146A9
:10570000002084F83C004846BDE8F0870220FBE713
:10571000206888420ED090420CD040450AD0984272
:1057200008D0B84206D0604504D041F28B0145A0B4
:1057300002F0F8FF2946206802F0AAF92068816982
:1057400041F0080181612068816921F004018161D3
:10575000206881692A69114324E0206888420ED0BC
:1057600090420CD040450AD0984208D0B84206D0AA
:10577000604504D041F29C0132A002F0D3FF2946DB
:10578000206802F0F3F92068816941F400618161C9
:105790002068816921F480618161206881692A69BA
:1057A00041EA02218161ABE7206888420ED0904235
:1057B0000CD040450AD0984208D0B84206D0604587
:1057C00004D041F2AD011FA002F0ACFF29462068D1
:1057D00002F03EFA2068C16941F00801C161206809
:1057E000C16921F00401C1612068C1692A691143BE
:1057F00025E0FFE7206888420ED090420CD040455B
:105800000AD0984208D0B84206D0604504D041F290
:10581000BE010CA002F086FF2946206802F08AFA39
:105820002068C16941F40061C1612068C16921F447
:105830008061C1612068C1692A6941EA0221C161B0
:105840005EE700002E2E2F53544D333246317878C8
:105850005F48414C5F4472697665722F5372632FC3
:1058600073746D3332663178785F68616C5F746928
:105870006D2E6300002C0140003401400004004004
:1058800000080040000C004010B5040051D03C4915
:105890002068884219D03B49884216D0B0F1804F29
:1058A00013D03949884210D0384988420DD0384940
:1058B00088420AD03749884207D03749884204D005
:1058C00040F22C5135A002F02DFFA06860B11028E5
:1058D0000AD0202808D0402806D0602804D040F202
:1058E0002D512EA002F01EFF206950B1B0F5807F2F
:1058F00007D0B0F5007F04D040F22E5127A002F06F
:1059000011FFE0684FF6FE71401E884204D940F254
:105910002F5122A002F006FFA06930B1802804D0E8
:105920004FF4A6611DA002F0FDFE94F83D0010B1F9
:1059300007E0012010BD002084F83C00204600F064
:1059400045F8022084F83D00211D206801F0F0FF99
:10595000012084F8460084F83E0084F83F0084F873
:10596000400084F8410084F8420084F8430084F841
:10597000440084F8450084F83D00002010BD00007C
:10598000002C0140003401400004004000080040A9
:10599000000C004000100040001400402E2E2F5339
:1059A000544D3332463178785F48414C5F447269D8
:1059B0007665722F5372632F73746D33326631784C
:1059C000785F68616C5F74696D2E63007047704723
:1059D0002DE9F05F05460068DFF814810227DFF843
:1059E0001491DFF814A1DFF814B1454E0C46404580
:1059F00006D1DCB3042C44D0082C49D00C2C30D078
:105A0000B04206D194B3042C3BD0082C40D00C2CCF
:105A100027D0B0F1804F13D0484506D134B3042CC1
:105A20002FD0082C34D00C2C1BD0504506D1ECB113
:105A3000042C26D0082C2BD00C2C12D0584506D183
:105A4000A4B1042C1DD0082C22D00C2C09D040F27B
:105A5000B3512CA002F066FE44B1042C11D0082CE6
:105A600016D095F84100012819D000E002E001208D
:105A7000BDE8F09F95F83E000128F6D185F83E700C
:105A80000FE095F83F000128EFD185F83F7008E05E
:105A900095F840000128E8D185F8407001E085F8CC
:105AA000417001222146286801F088FF286840459E
:105AB00001D0B04203D1426C42F4004242642868F3
:105AC00040450AD0B04208D0B0F1804F05D04845DB
:105AD00003D0504501D0584504D1816801F0070139
